:100000000C94E6070C9417080C9417080C94170826
:100010000C9417080C9417080C9417080C941708E4
:100020000C9417080C9417080C9417080C941708D4
:100030000C9417080C9417080C9417080C941708C4
:100040000C9417080C9417080C9417080C941708B4
:100050000C9417080C9417080C9417080C947F281C
:100060000C9417080C94B6150C948C150C94170866
:100070000C9417080C9417080C9417080C94170884
:100080000C9417080C9417080C9417080C94170874
:100090000C9417080C9417080C9417080C941F2242
:1000A0000C9417080C9417080C9417080C94170854
:1000B0000C9417080C9417080C9417080C94170844
:1000C0000C9417080C9417080C9417080C94170834
:1000D0000C9417080C9417080C9417080C94170824
:1000E0000C94170893269626852689268D26CD26DC
:1000F0009A269E26A426A826AC26B226B626BA267E
:10010000CD26C026C426C8260C9417210C941F1097
:100110000C94F50F0C948D260C94A01F0C94881051
:100120000C94D71D0C94D5100C94A71F0C94C10CE3
:100130000C9442100C94781F0C94C5110C949326C7
:100140000C9423370C9434210C94C8260C94E4208E
:100150000C94B2260C94C0260C94AC260C94CD269C
:100160000C94470B0C949A260C94941F0C94361EF6
:100170000C9496260C9413210C942E100C9414219C
:100180000C9436390C949E260C94B7200C94BA2605
:100190000C9489260C94B6260C94A4260C948526DF
:1001A0000C94771F0C94AF200C9450100C945911A0
:1001B0000C948B200C948C200C94C4260C94881FD7
:1001C0000C94A8260C9447210C948A200C941908AE
:1001D0000C949B2000407A10F35A00A0724E18092C
:1001E0000010A5D4E80000E87648170000E40B549E
:1001F000020000CA9A3B000000E1F505000080966D
:100200009800000040420F000000A086010000009E
:10021000102700000000E803000000006400000058
:1002200000000A00000000000100000000002C7621
:10023000D888DC674F0823DFC1DFAE59E1B1B7963C
:10024000E5E3E453C63AE651997696E8E6C2842699
:10025000EB898C9B62ED407C6FFCEFBC9C9F40F275
:10026000BAA56FA5F490055A2AF75C936B6CF967F1
:100270006DC11BFCE0E40D47FEF520E6B500D0EDB6
:10028000902E0300943577050080841E080000201E
:100290004E0A000000C80C333333330F986E1283BC
:1002A0001141EF8D2114893BE65516CFFEE6DB1890
:1002B000D1844B381BF77C1D901DA4BBE424203255
:1002C00084725E228100C9F124ECA1E53D27110072
:1002D0007F96290001007F9628003A0155C0021040
:1002E00010C10141C50400228040360168B0010000
:1002F000B102B011B40102B60302023BB701C63A23
:100300000155F704A9512C82B701C6E808408A00BC
:10031000002919A533C0020D0DC1024300C201001E
:10032000C50400480048B40100B60302023BE00FD8
:100330000F211C0B0E08499838091103141000E115
:100340000F0F2F2B0C0E06477637071104231E00C4
:10035000B00100B30402000000B40100D003074262
:1003600018D103000710D2020102D3020102D40205
:100370000102C005123B000211C103101088C50123
:1003800003C60102C80C003236450616377577548D
:100390000C00CC0100F603010100CF03008130ED19
:1003A0000464031281E803851078CB05392C0034EE
:1003B00002F70120EA020000B00100B102001BB404
:1003C0000100C00121C10111C5023F3CC701B53682
:1003D0000148F20100260101E00F0F26240B0E094F
:1003E00054A8460C17090F0700E10F00191B041051
:1003F000072A473903060630380F360100B80101D5
:10040000C0010EB00100C10410100202C006003588
:1004100000000102C50104D2020104CA0100EA0180
:1004200080B903FF83577F967F96B60125C006509B
:1004300050013C1E08B4070240002A2A0D787F01B3
:10044000F20B1616030808080810041616FD03110F
:100450000235B2050C0C003333B70135BB012BC09C
:100460000104C20201FFC30111C40120C6010FD063
:1004700002A4A1E00ED000050E150D374347091563
:10048000121619E10ED000050D0C062D44400E1C6D
:100490001816193A01557F0A06000700B10200122A
:1004A000B40102B60400202700CA0101CB0103C039
:1004B00001137F14C501CCC60100C70104C80103A4
:1004C000CC0106CD011CF9021515F3030A020AF648
:1004D00003011000FA00FB00B00103E2013FC0017C
:1004E00022E20100B00100C0010AB00100000000DA
:1004F00000000000000000000000000000FFFF0FEF
:100500000000040062080008080003000C01030B4F
:100510005A0203060903031710040300230503000E
:1005200017060309630703090C08030C10090332BB
:10053000221000160011000101120000001300013A
:100540000000013003010137020301000D800200A9
:10055000610201B0C1FFFF32000100000102000092
:100560000103003010090001000C000000900000A1
:10057000800F000000100200001102EF00120200C4
:100580000013028F01000500000105000002055F55
:10059000000104010004040000FFFF320007000016
:1005A00001FFFF3200000200000102000000000015
:1005B00000000000000000000000000100A4000195
:1005C00000FFFF0A00600000270800080830001440
:1005D0000231001537320004063300160E340011C4
:1005E0002235000015360007853700071438000350
:1005F000143900200090001500100010041100377D
:1006000002290046002A0046000700000012008967
:100610000113000011FFFF96001200B90101000054
:10062000010200000203003010090001000A00006E
:10063000000D0000000E003000610001006A0000A3
:1006400000800000008100000082005F0092000036
:100650000193000107FFFF500007000001E500F0D3
:1006600078010000010200000203003010040000C5
:10067000000500000008000702090000000A000051
:10068000000C0000000D0000000F00000010000032
:100690000011000700120000001300000007000115
:1006A00000FFFFC8001000901611002702FFFF3264
:1006B0000012000D00FFFF32001300001229000A93
:1006C000002B000D00FFFF32002000000021000081
:1006D0000030000000310004043200030035000542
:1006E0000436000808370007043800030339000700
:1006F000073C0004053D0008086000002761000178
:10070000006A0000008000000081000000820000FC
:1007100000830000008400000085000000900010AD
:10072000009200000007003301E500008000000196
:100730000001000001020000070300301004000067
:100740000008000202090000000A0000000C00007E
:10075000000D0000000F0000001000000011000755
:10076000001200000013000000FFFF32001000B074
:100770001711000700FFFF0A0012003A01FFFF0AED
:10078000001300001A29000C00FFFF0A00300000CF
:100790000031000505320004003500060036000770
:1007A000073700050138000200390007073C000444
:1007B000073D000708600000A7610001006A000013
:1007C00000210000002000000080000000810000E7
:1007D000008200000083000000840000008500000B
:1007E000009000100092000000930003009500109C
:1007F00001970000009800000007007301FFFF321E
:100800000001000001020000070300301008000290
:1008100003090000000A0008001000000011000594
:10082000001200000013000000FFFF64001000B081
:1008300012FFFF320011000700FFFF320012008C90
:10084000001300001729002000FFFF3200300000D5
:1008500000310006013200010135000601360003B7
:10086000023700000038000707390004023C000688
:10087000013D000301600000A7610001009000300D
:100880000007003301FFFF3200150030009A00100E
:10089000001100200010002834120002001300385C
:1008A00010FFFF280012001200FFFF280010002098
:1008B0003413004530FFFF460030000000310002D5
:1008C0000432000703330004033400040035000140
:1008D00004360007073700050338001006390010FA
:1008E00006010000010200000303003010080008A8
:1008F000080A000800600000276100010090003E27
:10090000019200000193000001A0000030A300103C
:100910000007000100070021000700230007003343
:10092000000700330111001A001200213113006C7E
:10093000001400494210000008FFFF0A0011001ACD
:1009400001FFFF0A0011001A03FFFF0A0011001A3D
:1009500007FFFF0A0011001A0FFFFF0A0011003AFB
:100960000FFFFF1E000100280102000001030030FC
:100970001007001210080003030B0000110C000008
:10098000000F000118150020005000010151000364
:1009900006520008045300000054000506550006E6
:1009A00004560003035700030358001000590000C9
:1009B0001007001200FFFF280007001300070017B0
:1009C0000000002100240027002A002D0030003301
:1009D0000001010000040107010A010000220025B6
:1009E0000028002B002E0031003400020100000519
:1009F0000108010B0105050505070508080808029F
:100A00000202020A0A0808040404040101010101A7
:100A10000101010303030303030303040707070C96
:100A20000C0C0C0C0C0C0C0202020206060606064C
:100A30000606060B0B0B0B0B0B0B0B0102102020F9
:100A40000808102040102040800201020108040222
:100A50000101020408102040808040201008040298
:100A600001800402018040201008040201080402F1
:100A700001010204081020408001020408102040F7
:100A80008000000A0B02090C0D0E08070304010088
:100A90000000000000000000000000000000000056
:100AA0000000000000000000000000000012111013
:100AB0000000000000000000000000000000000036
:100AC0000000000000000000000000003E5B4F5BE3
:100AD0003E3E6B4F6B3E1C3E7C3E1C183C7E3C18E1
:100AE0001C577D571C1C5E7F5E1C00183C1800FFC5
:100AF000E7C3E7FF0018241800FFE7DBE7FF3048F3
:100B00003A060E2629792926407F050507407F05EC
:100B1000253F5A3CE73C5A7F3E1C1C08081C1C3EE3
:100B20007F14227F22145F5F005F5F06097F017FD1
:100B3000006689956A606060606094A2FFA2940874
:100B4000047E040810207E201008082A1C08081CB7
:100B50002A08081E101010100C1E0C1E0C30383EF7
:100B60003830060E3E0E06000000000000005F0058
:100B7000000007000700147F147F14242A7F2A1224
:100B8000231308646236495620500008070300000A
:100B90001C2241000041221C002A1C7F1C2A08083C
:100BA0003E0808008070300008080808080000604F
:100BB000600020100804023E5149453E00427F403B
:100BC0000072494949462141494D331814127F109A
:100BD00027454545393C4A494931412111090736E4
:100BE00049494936464949291E0000140000004081
:100BF000340000000814224114141414140041227B
:100C0000140802015909063E415D594E7C12111229
:100C10007C7F494949363E414141227F4141413E25
:100C20007F494949417F090909013E414151737F8B
:100C30000808087F00417F41002040413F017F08B4
:100C40001422417F404040407F021C027F7F040805
:100C5000107F3E4141413E7F090909063E41512135
:100C60005E7F09192946264949493203017F01035C
:100C70003F4040403F1F2040201F3F4038403F63DF
:100C80001408146303047804036159494D43007F39
:100C90004141410204081020004141417F0402010A
:100CA00002044040404040000307080020545478AC
:100CB000407F284444383844444428384444287FFA
:100CC000385454541800087E090218A4A49C787F54
:100CD0000804047800447D40002040403D007F101F
:100CE00028440000417F40007C047804787C08049C
:100CF00004783844444438FC182424181824241850
:100D0000FC7C08040408485454542404043F44243C
:100D10003C4040207C1C2040201C3C4030403C4457
:100D2000281028444C9090907C4464544C44000813
:100D30003641000000770000004136080002010241
:100D400004023C2623263C1EA1A161123A40402009
:100D50007A38545455592155557941225454784282
:100D6000215554784020545579400C1E5272123946
:100D700055555559395454545939555454580000FF
:100D8000457C410002457D420001457C407D1211B9
:100D9000127DF0282528F07C545545002054547CC1
:100DA000547C0A097F4932494949323A4444443A19
:100DB000324A4848303A4141217A3A42402078004C
:100DC0009DA0A07D3D4242423D3D4040403D3C24EF
:100DD000FF2424487E4943662B2FFC2F2BFF092933
:100DE000F620C0887E090320545479410000447DD8
:100DF000413048484A32384040227A007A0A0A7222
:100E00007D0D19317D2629292F28262929292630CB
:100E1000484D4020380808080808080808382F10EE
:100E2000C8ACBA2F102834FA00007B000008142A3E
:100E3000142222142A14085500550055AA55AA5503
:100E4000AAFF55FF55FF000000FF00101010FF0023
:100E5000141414FF001010FF00FF1010F010F01415
:100E60001414FC001414F700FF0000FF00FF14141A
:100E7000F404FC141417101F10101F101F14141466
:100E80001F00101010F0000000001F101010101FA5
:100E900010101010F010000000FF101010101010B3
:100EA000101010FF10000000FF140000FF00FF00F2
:100EB000001F10170000FC04F4141417101714146A
:100EC000F404F40000FF00F714141414141414F7BD
:100ED00000F7141414171410101F101F141414F416
:100EE000141010F010F000001F101F0000001F145D
:100EF000000000FC140000F010F01010FF10FF14B0
:100F00001414FF141010101F00000000F010FFFF59
:100F1000FFFFFFF0F0F0F0F0FFFFFF000000000027
:100F2000FFFF0F0F0F0F0F3844443844FC4A4A4A62
:100F3000347E02020606027E027E02635549416348
:100F40003844443C04407E201E2006027E02029962
:100F5000A5E7A5991C2A492A1C4C7201724C304AFB
:100F60004D4D303048784830BC625A463D3E494984
:100F700049007E0101017E2A2A2A2A2A44445F442C
:100F80004440514A444040444A51400000FF01035C
:100F9000E080FF000008086B6B0836123624360626
:100FA0000F090F0600001818000000101000304054
:100FB000FF0101001F01011E00191D1712003C3C1A
:100FC0003C3C0000000000002337363911241FBECE
:100FD000CFEFD1E2DEBFCDBF00E00CBF25E0A4E73C
:100FE000B3E001C01D92AA39B207E1F713E0A0E017
:100FF000B2E0EAEDF0E800E00BBF02C007900D920E
:10100000A437B107D9F717E0C5EED7E000E006C076
:1010100021970109802FFE010E94193DC43ED1078E
:1010200080E00807A9F70E94C9280C945B400C9443
:101030000000EF92FF920F931F93DC01ED91FC9162
:1010400000A0F1A1E02D7801890121E030E019959F
:101050001F910F91FF90EF90089508958B988A98B3
:1010600020910201277820930201A5982EB1277CB8
:101070002EB970910201292F3327F901E370FF2760
:10108000A5E0EE0FFF1FAA95E1F7E72BE093020121
:101090007EB1F901EC70FF27EE0FFF1FEE0FFF1F6F
:1010A000E72BEEB974B3F901E071FF27EE0FFF1FD4
:1010B000E72BE4BB7EB1F901E072FF27F595E795D8
:1010C000F595E795E72BEEB970910201207C332767
:1010D000E3E035952795EA95E1F7272B2093020168
:1010E0008998899A20910201277820930201A59876
:1010F0002EB1277C2EB9709102019C0123703327F9
:10110000F5E0220F331FFA95E1F7272B2093020118
:101110007EB19C012C703327220F331F220F331F07
:10112000272B2EB974B39C0120713327220F331F54
:10113000272B24BB7EB19C01207233273595279540
:1011400035952795272B2EB9709102019C01207CA3
:101150003327F3E035952795FA95E1F7272B209370
:1011600002018998899A8A9AFA01A09174037FEF03
:10117000760F16160CF0C7C0219130910201377816
:1011800030930201A5983EB1377C3EB960910201CF
:10119000322F3370B0E23B9FA0011124462B4093C5
:1011A00002016EB1322F3C70B4E03B9FA0011124CC
:1011B000462B4EB944B3322F3071330F342B34BB2E
:1011C0006EB1322F3072432F50E0559547955595AB
:1011D0004795462B4EB930910201207C26952695E5
:1011E0002695232B209302018998899A711102C0B8
:1011F000672FBDCFAA23E1F301968A9820910201BF
:10120000277820930201A5982EB1277C2EB96091F2
:101210000201292F3327A90143705527B5E0440F58
:10122000551FBA95E1F7462B409302016EB1A90113
:101230004C705527440F551F440F551F462B4EB970
:1012400064B3A90140715527440F551F462B44BB79
:101250006EB1A9014072552755954795559547950B
:10126000462B4EB940910201207C332753E035953F
:1012700027955A95E1F7242B209302018998899AA2
:1012800020910201277820930201A5982EB1277C96
:101290002EB9409102019C012370332765E0220F93
:1012A000331F6A95E1F7242B209302014EB19C0174
:1012B0002C703327220F331F220F331F242B2EB9FC
:1012C00044B39C0120713327220F331F242B24BBEE
:1012D0004EB19C012072332735952795359527957A
:1012E000242B2EB9409102019C01207C3327B3E0CE
:1012F00035952795BA95E1F7242B2093020189981B
:10130000899A8A9A75CF8B9A08958B988A98E2E089
:10131000F1E0208127782083A5982EB1277C2EB973
:10132000A081292F3327A90143705527B5E0440F29
:10133000551FBA95E1F74A2B4083AEB1A9014C7015
:101340005527440F551F440F551F4A2B4EB9A4B3C0
:10135000A90140715527440F551F4A2B44BBAEB11C
:10136000A9014072552755954795559547954A2BA4
:101370004EB94081207C332753E0359527955A9507
:10138000E1F7242B20838998899A2081277820836C
:10139000A5982EB1277C2EB940819C01237033275C
:1013A000A5E0220F331FAA95E1F7242B20834EB12D
:1013B0009C012C703327220F331F220F331F242B45
:1013C0002EB944B39C0120713327220F331F242BE5
:1013D00024BB4EB19C012072332735952795359556
:1013E0002795242B2EB92081807C9927B3E09595F1
:1013F0008795BA95E1F7822B80838998899A8A9A92
:10140000808187788083A5988EB1877C8EB9408152
:10141000872F99279C012370332755E0220F331F14
:101420005A95E1F7242B20834EB19C012C70332771
:10143000220F331F220F331F242B2EB944B39C01DC
:1014400020713327220F331F242B24BB4EB19C0164
:10145000207233273595279535952795242B2EB95E
:101460002081807C9927A3E095958795AA95E1F73F
:10147000822B80838998899A808187788083A59838
:101480008EB1877C8EB92081CB0183709927B5E01E
:10149000880F991FBA95E1F7822B80832EB1CB017B
:1014A0008C709927880F991F880F991F822B8EB9EE
:1014B00024B3CB0180719927880F991F822B84BB9D
:1014C0002EB1CB0180729927959587959595879533
:1014D000822B8EB98081607C7727A3E07595679514
:1014E000AA95E1F7682B60838998899A8B9A089569
:1014F0008F929F92AF92BF92CF92DF92EF92FF9224
:101500000F931F93CF93DF9300D01F92CDB7DEB719
:101510007C015B016A014901FC01878D90A1873242
:10152000F3E99F0799F4F7018689823031F4F0E2FC
:10153000CF0ED11C005E1F4F1EC08330E1F420E2AD
:10154000A20EB11C80E2880E911C15C08632954116
:1015500091F4F701868980FF0EC0C801841B950BAA
:1015600019F40F5F1F4F07C06217730721F44B0177
:10157000880E991E8A01F701858D80FF3BC085A5E5
:10158000B982AA829B828C82AE014F5F5F4F64E07A
:1015900090E00E942E08F70181A9D982CA821B839C
:1015A0000C83AE014F5F5F4F64E090E00E942E0815
:1015B00080917403882309F459C0F701878D90A1A5
:1015C0008536910509F052C0B982AA82AE014F5FFB
:1015D0005F4F62E087A190A50E942E08D982CA823F
:1015E000AE014F5F5F4F62E0F70181A592A50E94B7
:1015F0002E083CC0B501F70187A190A50E9485097E
:10160000B601F70181A592A50E9485098A149B0461
:1016100019F40C151D0551F1F701858D85FF0EC0DC
:10162000868980FF06C0102F0027C02AD12A860194
:1016300005C0982C8824A828B9284501B501F701D0
:1016400085A596A50E948509B601F70181A992A9F1
:101650000E948509B401F70187A590A90E94850918
:10166000B801F70183A994A90E9485090F900F90F2
:101670000F900F90DF91CF911F910F91FF90EF90FE
:10168000DF90CF90BF90AF909F908F900895EF9292
:10169000FF920F931F93CF93DF937C01E90177FDB6
:1016A00069C157FD67C1FC0180859185681779077D
:1016B0000CF060C182859385481759070CF05AC118
:1016C00080917503882341F0CE018F719927880F8F
:1016D000991FC17CC82BD92B8A019B01C7010E948D
:1016E000780A80917403882309F438C18B988A980A
:1016F000F70183A594A52091020127782093020188
:10170000A5982EB1277C2EB960910201292F33278D
:10171000A9014370552775E0440F551F7A95E1F7ED
:10172000462B409302016EB1A9014C705527440F1E
:10173000551F440F551F462B4EB964B3A901407184
:101740005527440F551F462B44BB6EB1A90140726B
:1017500055275595479555954795462B4EB9409138
:101760000201207C3327B3E035952795BA95E1F740
:10177000242B209302018998899A209102012778CD
:1017800020930201A5982EB1277C2EB94091020129
:101790009C012370332715E0220F331F1A95E1F7C0
:1017A000242B209302014EB19C012C703327220F71
:1017B000331F220F331F242B2EB944B39C012071F9
:1017C0003327220F331F242B24BB4EB19C012072E0
:1017D00033273595279535952795242B2EB92091BC
:1017E0000201807C992773E0959587957A95E1F7BA
:1017F000822B809302018998899A8A9A2C2F220F32
:10180000220F220F80910201877880930201A59810
:101810008EB1877C8EB980910201809302013EB126
:10182000CE018827987F892F9927AC014C705527C6
:10183000440F551F440F551F432B4EB934B3AC0111
:1018400040715527440F551F432B44BB3EB1AC019B
:10185000407255275595479555954795432B4EB959
:1018600030910201807C992713E0959587951A9510
:10187000E1F7832B809302018998899A8091020174
:10188000877880930201A5988EB1877C8EB980916C
:101890000201809302013EB1C07ED77003E0D6956D
:1018A000C7950A95E1F7CE018C709927880F991F8B
:1018B000880F991F832B8EB934B3CE01807199277D
:1018C000880F991F832B84BB3EB1CE01807299276C
:1018D0009595879595958795832B8EB98091020173
:1018E000C07CDD2773E0D595C7957A95E1F7C82BC5
:1018F000C09302018998899A809102018778809328
:101900000201A5988EB1877C8EB9809102018093E7
:1019100002019EB1822F8C70880F880F892B8EB99F
:1019200094B3822F8071880F892B84BB3EB1922F94
:101930009072892F90E09595879595958795832B43
:101940008EB980910201207C269526952695282B1C
:10195000209302018998899A8B9A0CC0BE01F701E5
:1019600083A594A5DF91CF911F910F91FF90EF90E8
:101970000C948509DF91CF911F910F91FF90EF900B
:101980000895DF92EF92FF920F931F93CF93DF930F
:10199000CDB7DEB72A970FB6F894DEBF0FBECDBF26
:1019A0007C01862F8370D70156968C935697462FCD
:1019B000417060FF05C016962D913C91179703C0AA
:1019C000F70124813581D70119963C932E931897FE
:1019D000442329F014962D913C91159703C0F701EB
:1019E00026813781D7011B963C932E931A9782301C
:1019F00041F0833041F0813011F088E405C088E285
:101A000003C088E901C088EF8A87F701258D368DEC
:101A100030FF03C08A8580588A8731FF04C09A85C9
:101A200080E489278A8733FF04C09A8588E0892764
:101A30008A87D7015F968D919C91909720FFD5C0A2
:101A4000109174038431B8E69B07F9F49A85892FC5
:101A5000881F8827881F8295880F880F807C96FDB5
:101A600002C020E001C020E298729A871F82826043
:101A7000822B88878BE38987AE01495F5F4F63E0E4
:101A800086EB90E00E942E0889C08336E9E19E072C
:101A900041F08138F4E99F0721F0813125E1920777
:101AA00009F52A8527FF02C021602A872A8526FF9B
:101AB00002C022602A87833639E1930719F48A85A8
:101AC0008F730EC0813844E9940719F48A858F72A8
:101AD00007C08131954109F061C08A858F7E806C95
:101AE0008A875CC0112309F459C062E070E0F701F5
:101AF00070A767A326E030E032A721A7E2E2F0E07A
:101B0000D7019C96FC93EE939B979E967C936E9345
:101B10009D9764E070E0D0967C936E939F97D296E9
:101B20003C932E93D19728E030E0D4963C932E93AB
:101B3000D3978536910521F58A85982F916084FD8C
:101B400002C09A8703C083ED89278A87442351F016
:101B500082E890E0F70190A787A380E890E092A741
:101B600081A732C280E890E0D70198969C938E932B
:101B7000979782E890E09A969C938E93999724C2C7
:101B80008235924501F58A85982F926084FD02C0C6
:101B90009A8719C084ED89278A8715C02AE230E028
:101BA000F70130A727A38BE290E092A781A74CE230
:101BB00050E054A743A736A725A730AB27A792AB81
:101BC00081AB94AB83AB1111FFC186E390E0AE0112
:101BD000465F5F4F61E00E942E088A8590E0D70142
:101BE00094969C938E939397E6C02A858339B7E7A2
:101BF0009B0709F448C050F48435F1E09F0781F059
:101C0000803234E5930709F081C03DC0863243E954
:101C10009407C9F18930A5EB9A0709F077C033C062
:101C200087E390E0F70196A785A786E390E090AB65
:101C300087A789E390E092AB81AB88E390E094AB17
:101C400083AB80E290E090A787A381E290E092A727
:101C500081A782E290E094A783A7822F022E000C36
:101C6000990B8827990F881F9927982F8827990FF4
:101C700026FD03C060E070E002C060E071E08862B1
:101C8000682B792B82C040E052E0D70198965C9394
:101C90004E93979741E052E09A965C934E939997B2
:101CA00042E052E09C965C934E939B9740E152E059
:101CB0009E965C934E939D9741E152E0D0965C9343
:101CC0004E939F9742E152E0D2965C934E93D19708
:101CD00043E152E0D4965C934E93D39727FD03C023
:101CE00020E030E002C020E030E88632B3E99B0714
:101CF00031F08032944519F060E07AE602C060E08D
:101D000075E3622B732B80E094E035C080E290E0B5
:101D1000D70198969C938E93979781E290E09A963C
:101D20009C938E93999782E290E09C969C938E93DD
:101D30009B9780E590E09E969C938E939D9781E57E
:101D400090E0D0969C938E939F9782E590E0D296F8
:101D50009C938E93D19783E590E0D4969C938E9339
:101D6000D39727FD03C060E070E002C060E070E838
:101D7000776280E690E00E9485098A8586FD03C02F
:101D800060E070E002C060E071E081E090E00E94FD
:101D900085098A8585FD03C060E070E002C068E0C7
:101DA00070E083FD70616063F70174A363A383E057
:101DB00090E00E948509D70156968C91569780FF36
:101DC00036C05D968D919C915E9792FD30C097963E
:101DD0008D919C91989799962D913C919A97989670
:101DE0003C932E9397979A969C938E9399979D9652
:101DF0008D919C919E97D1962D913C91D2979E96D4
:101E00003C932E939D97D2969C938E93D1979F96B9
:101E10008D919C91D097D3962D913C91D497D0964B
:101E20003C932E939F97D4969C938E93D397F701D0
:101E30000285138501501109208531852150310912
:101E400040E050E060E070E0C7010E94780AD701EE
:101E500016966D917C9117975F968D919C919097B6
:101E60008732B3E99B0741F4F701268922502230DB
:101E700018F400E210E002C000E010E08732F3E95D
:101E80009F0729F022273327201B310B04C020E2B3
:101E900030E0201B310BD7015D964C9140FF45C0CF
:101EA0001982D02E0A837B836C833D832E8310910D
:101EB0007403111103C083E390E002C08EE090E050
:101EC000AE014F5F5F4F66E00E942E081982DA82F2
:101ED000111103C087E390E002C084E190E0AE01FD
:101EE0004F5F5F4F62E00E942E08112389F0198234
:101EF000F701878D90A18734934819F081E090E035
:101F000002C088E190E0AE014F5F5F4F61E00AC020
:101F1000D7015D968C9180FF5AC040E050E060E0B0
:101F200083E190E00E942E0852C08339B7E79B07F7
:101F300079F160F48032F4E59F0751F1833827E7A7
:101F4000920781F08435914089F510C0863243E9CB
:101F50009407F1F08930A5EB9A07D1F085329249C8
:101F600029F504C0F70161A172A124C0600F711F9F
:101F70006150710981E390E00E948509B80182E314
:101F800090E00E94850960E070E083E390E019C072
:101F9000D70191966D917C919297626081E094E077
:101FA0000E948509B80184E094E00BC0F70161A1AB
:101FB00072A1626081E690E00E948509B8018AE61C
:101FC00090E00E94850903C086E190E000CE2A9649
:101FD0000FB6F894DEBF0FBECDBFDF91CF911F913A
:101FE0000F91FF90EF90DF900895CF92DF92EF92E4
:101FF000FF920F931F93CF93DF936C017A018B01B4
:10200000C0E0D0E0CE15DF0581F0D8016D918D01E3
:10201000D601ED91FC910190F081E02DC60119955A
:10202000892B11F02196EECF7E01C701DF91CF9170
:102030001F910F91FF90EF90DF90CF900895FC01DA
:10204000538D448D252F30E0842F90E0821B930B1D
:10205000541710F0CF96089501970895FC01918DC3
:10206000828D981761F0828DDF01A80FB11D5D96FA
:102070008C91928D9F5F9F73928F90E008958FEF68
:102080009FEF0895FC01918D828D981731F0828D1C
:10209000E80FF11D858D90E008958FEF9FEF089573
:1020A000FC01918D228D892F90E0805C9F4F821BD7
:1020B00091098F739927089586E793E00E94501045
:1020C00021E0892B09F420E0822F0895FC01848D02
:1020D000DF01A80FB11DA35ABF4F2C91848D90E052
:1020E00001968F739927848FA689B7892C93A0892D
:1020F000B1898C91837080648C93938D848D9813B7
:1021000006C00288F389E02D80818F7D8083089549
:10211000EF92FF920F931F93CF93DF93EC0181E037
:10212000888F9B8D8C8D981305C0E889F9898081F3
:1021300085FD26C0F62E0B8D10E00F5F1F4F0F732D
:102140001127E02E8C8DE8120CC00FB607FCFACFD9
:10215000E889F989808185FFF5CFCE010E9466105C
:10216000F1CF8B8DFE01E80FF11DE35AFF4FF08296
:102170009FB7F8940B8FEA89FB89808180620AC03F
:102180009FB7F894EE89FF896083E889F989808197
:102190008370806480839FBF81E090E0DF91CF9166
:1021A0001F910F91FF90EF900895CF93DF93EC0173
:1021B000888D8823C9F0EA89FB89808185FD05C067
:1021C000A889B9898C9186FD0FC00FB607FCF5CFA1
:1021D000808185FFF2CFA889B9898C9185FFEDCFE9
:1021E000CE010E946610E7CFDF91CF91089580E085
:1021F00090E0892B21F00E945C10811125C080E0C5
:1022000090E0892B41F080E090E0892B21F00E9442
:10221000000081111CC080E090E0892B41F080E03B
:1022200090E0892B21F00E940000811113C080E012
:1022300090E0892BA1F080E090E0892B81F00E9452
:10224000000081110AC008950E940000D8CF0E94AA
:102250000000E1CF0E940000EACF0C940000089536
:102260000E9446400F931F93CF93DF93EC01888128
:102270009981009729F02A813B812617370788F436
:102280008B016F5F7F4F0E94613F009761F09983E0
:1022900088831B830A832C813D81232B11F4FC014D
:1022A000108281E001C080E0DF91CF911F910F91FA
:1022B0000895CF93DF931F92CDB7DEB7FC01858DD4
:1022C000968D929591709627692F70E072A361A305
:1022D00080FF2DC0809174038823E1F0278D30A109
:1022E000273483E8380719F02235324531F491114B
:1022F00002C082E007C086E005C0911102C08AE0FA
:1023000001C088E08983AE014F5F5F4F61E081E0EB
:1023100090E00AC0911103C080E290E002C081E227
:1023200090E040E050E060E00E942E082AC0878DD7
:1023300090A1833927E79207E1F040F4843521E04A
:10234000920779F080329445C1F413C0863223E9B4
:10235000920779F0893025EB920759F0853292493E
:1023600061F4660F771F660F771F636187E090E067
:1023700006C0626081E094E002C081E690E00E94C5
:1023800085090F90DF91CF910895AF92BF92CF92C0
:10239000DF92EF92FF920F931F93CF93DF93EC01A5
:1023A00080917503882349F0C7018F719927880FA1
:1023B000991FE1ECEE22E82AF92A37FF05C0620FE7
:1023C000731F319521953109260F371F77FF02C002
:1023D00060E070E088859985821793070CF49C0172
:1023E0006901C61AD70A17FF05C0400F511F119582
:1023F00001951109040F151F57FF02C040E050E07E
:102400008A859B85801791070CF48C015801A41ACA
:10241000B50A0150110921503109CE010E94780AF4
:102420008B988A988BA59CA52091020127782093F0
:102430000201A5982EB1277C2EB960910201292FA7
:102440003327A9014370552705E0440F551F0A950E
:10245000E1F7462B409302016EB1A9014C7055275C
:10246000440F551F440F551F462B4EB964B3A901A5
:1024700040715527440F551F462B44BB6EB1A9012F
:10248000407255275595479555954795462B4EB91A
:1024900040910201207C3327A3E035952795AA952A
:1024A000E1F7242B209302018998899A2091020157
:1024B000277820930201A5982EB1277C2EB9409150
:1024C00002019C0123703327B5E0220F331FBA9518
:1024D000E1F7242B209302014EB19C012C7033278D
:1024E000220F331F220F331F242B2EB944B39C011C
:1024F00020713327220F331F242B24BB4EB19C01A4
:10250000207233273595279535952795242B2EB99D
:1025100020910201807C992763E0959587956A95C3
:10252000E1F7822B809302018998899A8A9ACA14CA
:10253000DB042CF49C2D8D2D6501A92EB82E8F2D3A
:1025400099279C01237033272295220F207EAC010E
:102550004C705527342F330F330FAC014071552782
:10256000440FBC017695679576956795562F587000
:1025700063E0969587956A95E1F78871B701637076
:102580007727962F9295990F907EB7016C707727D9
:10259000660F660FF701E071FF277E2F770FD701D7
:1025A000B695A795B695A795A870F701B3E0F695EF
:1025B000E795BA95E1F71E2F18711A141B040CF059
:1025C00043C0F601B0910201B778B0930201A5981B
:1025D000BEB1B77CBEB9B0910201B22BB09302017B
:1025E000BEB1B32BBEB9B4B3B42BB4BBBEB1B52B23
:1025F000BEB9B0910201B82BB09302018998899AB3
:10260000B0910201B778B0930201A598BEB1B77C32
:10261000BEB9B0910201B92BB0930201BEB1B62B85
:10262000BEB9B4B3B72BB4BBBEB1BA2BBEB9B0916F
:102630000201B12BB09302018998899A319711F662
:10264000E1E0AE1AB108B9CF8B9A8D8D80FF08C03A
:102650008F8D98A18632954191F48E8980FF0FC0AD
:102660000A851B85015011092885398521503109BA
:1026700040E050E060E070E0CE010E94780ADF9117
:10268000CF911F910F91FF90EF90DF90CF90BF906F
:10269000AF900895EF92FF920F931F93CF93DF9324
:1026A0006115710511F480E01CC041155105C1F0A0
:1026B0007B01EC018C819D818A01080F191FB801F3
:1026C000CE010E943211882371F3288139818C81D7
:1026D0009D81B701820F931F0E9454401D830C837C
:1026E00081E0DF91CF911F910F91FF90EF900895BE
:1026F000CF93DF93EC0188819981009711F00E94BC
:10270000D83E198218821D821C821B821A82DF9198
:10271000CF910895CF93DF93EC016115710561F0BE
:10272000FB0101900020E9F73197AF01461B570BE1
:102730000E944A13811103C0CE010E947813CE017A
:10274000DF91CF910895EF92FF920F931F93CF9354
:10275000DF93EC017B018A01BA010E9432118111E1
:1027600004C0CE010E94781307C01D830C83B701FB
:10277000888199810E945440CE01DF91CF911F91B1
:102780000F91FF90EF900895CF93DF93EC016115C7
:10279000710559F0FB0101900020E9F73197AF0175
:1027A000461B570B0E94A31302C00E947813CE0150
:1027B000DF91CF910895FC01808191810C94D83EE6
:1027C000EF92FF920F931F93CF93DF93CDB7DEB7B6
:1027D000A1970FB6F894DEBF0FBECDBF7C01CB0131
:1027E000BA01F701118210821382128215821482BB
:1027F00042E0420F8E010F5F1F4F0E943A39BC0129
:10280000C7010E94C413A1960FB6F894DEBF0FBE95
:10281000CDBFDF91CF911F910F91FF90EF90089561
:10282000FB01DC0111961C921E9213961C921E92C3
:10283000129715961C921E9214978617970749F0C7
:10284000608171816115710521F0448155810C947D
:10285000A3130895FC011182108213821282158243
:1028600014826115710551F0FB0101900020E9F718
:102870003197AF01461B570B0C94A3130895DB014E
:1028800014964D915C9115976D917C91DC01ED91C1
:10289000FC910280F381E02D19946115710579F0A6
:1028A000FB0101900020E9F73197AF01461B570B60
:1028B000DC01ED91FC910280F381E02D199480E020
:1028C00090E008952F923F924F925F926F927F9285
:1028D0008F929F92AF92BF92CF92DF92EF92FF9230
:1028E0000F931F93CF93DF93CDB7DEB7A2970FB6A9
:1028F000F894DEBF0FBECDBF8C014A015B01D22E22
:102900009A01AB01C501B4010E943B3E882319F036
:102910006AE173E027C024013501E89477F82FEFCE
:102920003FEF4FE75FE7C301B2010E943B3E8111D9
:102930000DC02FEF3FEF4FE75FE7C301B2010E94E9
:10294000D33B18161CF46EE173E00CC02FEF3FEF81
:102950004FE75FE4C501B4010E94363E181634F417
:1029600062E273E0C8010E944D14BDC02FEF3FEF3B
:102970004FE75FECC501B4010E94D33B87FDF0CF68
:1029800020E030E0A901C501B4010E94D33B87FFDC
:102990000FC0D801ED91FC910190F081E02D6DE226
:1029A000C80119951C01B7FAB094B7F8B09402C0E9
:1029B000212C312CF12C60E070E080E09FE3DF14EB
:1029C00041F020E030E040E251E40E948E3DF3947B
:1029D000F6CFA50194010E94223D4B015C010E94AB
:1029E000073E562E672E782EC92E19A2262F372F76
:1029F000482F592F7E01B1E2EB0EF11CEAA24F2CB9
:102A0000CA01B9012AE030E040E050E00E94F73C02
:102A1000605DF70162937F01211531054105510584
:102A200079F7BF01C8010E944D147101E80EF91E2B
:102A3000DD2009F457C0652D762D872D9C2D0E9431
:102A4000D83B9B01AC01C501B4010E94213D4B0163
:102A50005C01D801ED91FC910190F081E02D6EE2D6
:102A6000C8011995E80EF91E20E030E040E251E47B
:102A7000C501B4010E94393C4B015C010E94073E34
:102A80009B0140E050E019A22AA0342C562E632E60
:102A9000742EC52ECA01B9012AE030E040E050E0B2
:102AA0000E94F73C605DF10162931F012115310521
:102AB0004105510579F7BF01C8010E944D14E80E88
:102AC000F91E652D762D872D9C2D0E94D83B9B01EC
:102AD000AC01C501B4010E94213D4B015C01DA94B7
:102AE000D110C2CFC701A2960FB6F894DEBF0FBEB9
:102AF000CDBFDF91CF911F910F91FF90EF90DF90AD
:102B0000CF90BF90AF909F908F907F906F905F908D
:102B10004F903F902F9008951F920F920FB60F92F3
:102B200011240BB60F922F933F934F935F936F93A4
:102B30007F938F939F93AF93BF93EF93FF9386E71A
:102B400093E00E946610FF91EF91BF91AF919F912A
:102B50008F917F916F915F914F913F912F910F9046
:102B60000BBE0F900FBE0F901F9018951F920F92E3
:102B70000FB60F9211240BB60F922F938F939F9342
:102B8000EF93FF93E0918603F09187038081E091BA
:102B90008C03F0918D0382FD12C0908180918F0390
:102BA0008F5F8F7320919003821751F0E0918F0314
:102BB000F0E0EA58FC4F958F80938F0301C080812D
:102BC000FF91EF919F918F912F910F900BBE0F90DE
:102BD0000FBE0F901F9018950F931F93CF93DF9305
:102BE000EC018B0110161106B4F4FE01859194914D
:102BF0002496FE013297659174918F3F2FEF9207D3
:102C000029F480E090E00E94202802C00E948509FB
:102C100004501109E7CFDF91CF911F910F910895D3
:102C2000FF920F931F93CF93DF93EC018B01F090F2
:102C30007403101611060CF0D9C0FE019491319660
:102C4000649122969F3739F470E080E090E00E9412
:102C5000202860E0C5C08B988A988091020187780F
:102C600080930201A5988EB1877C8EB940910201B4
:102C7000892F8370F0E28F9F90011124242B2093E1
:102C800002014EB1892F8C7054E0859F9001112470
:102C9000242B2EB924B3892F8071880F822B84BBFB
:102CA0004EB1892F8072282F30E0359527953595C4
:102CB0002795242B2EB920910201892F807C86959F
:102CC00086958695822B809302018998899A51E096
:102CD000560FFE0140E04F5F451709F47EC0849116
:102CE0008A9A20910201277820930201A5982EB19B
:102CF000277C2EB970910201382F3370A0E23A9FE1
:102D000090011124272B209302017EB1382F3C70B3
:102D1000A4E03A9F90011124272B2EB934B3282F19
:102D20002071220F232B24BB7EB1382F3072232F2A
:102D300030E03595279535952795272B2EB920918D
:102D40000201807C869586958695822B8093020170
:102D50008998899AF11002C03196BDCF4617E0F7E5
:102D60008A989F5F80910201877880930201A598DD
:102D70008EB1877C8EB970910201892F8370A0E299
:102D80008A9F90011124272B209302017EB1892F65
:102D90008C70A4E08A9F90011124272B2EB924B3B4
:102DA000892F8071880F822B84BB7EB1892F80721E
:102DB000282F30E03595279535952795272B2EB967
:102DC00020910201892F807C869586958695822B9D
:102DD000809302018998899ABFCFC60FD11D8B9A23
:102DE00070E06E5F7F4F061B170B23CFDF91CF91F3
:102DF0001F910F91FF90089581E08093C804E1E056
:102E0000F1E08081886780839D9A8DB188638DB958
:102E1000809A819A829A839A849A8B9A889A899ABC
:102E20008C9A62E370E080E090E00E9420288C9809
:102E300064E670E080E090E00E9420288C9A64E6CE
:102E400070E080E090E00E94202860E070E080EB7D
:102E500090E00C948509EF92FF920F931F93CF930C
:102E6000DF93EC01162F8091C804811102C00E94EB
:102E7000FC168B988A9880910201877880930201D2
:102E8000A5988EB1877C8EB9409102018D2F99272C
:102E90009C012370332755E0220F331F5A95E1F729
:102EA000242B209302014EB19C012C703327220F5A
:102EB000331F220F331F242B2EB944B39C012071E2
:102EC0003327220F331F242B24BB4EB19C012072C9
:102ED00033273595279535952795242B2EB92091A5
:102EE0000201807C9927F3E095958795FA95E1F7A3
:102EF000822B809302018998899A809102018778B8
:102F000080930201A5988EB1877C8EB92091020131
:102F1000CE0183709927A5E0880F991FAA95E1F744
:102F2000822B809302012EB1CE018C709927880FDD
:102F3000991F880F991F822B8EB924B3CE018071FF
:102F40009927880F991F822B84BB2EB1CE018072E6
:102F500099279595879595958795822B8EB9809120
:102F60000201C07CDD2743E0D595C7954A95E1F77E
:102F7000C82BC09302018998899A8A9A809101018D
:102F80008778809301019D988DB1877C8DB961E030
:102F900070E080E090E00E94202861E070E080E036
:102FA00090E00E942028889A889888988898C091F4
:102FB0000001DCB102B3ECB0F0900001889A61E04E
:102FC00070E080E090E00E942028889A8898889895
:102FD0008898E0910001FCB132B32CB1A0910001BE
:102FE000889A115017FFD9CF889A8B9A8091010146
:102FF0008867809301019D9A8DB188638DB94E2DAC
:10300000487050E0440F551F440F551F8F2D887195
:1030100068E0869FC0011124482B592B0072802F35
:1030200090E095958795482B592BD0738D2F90E084
:103030009595879595958795482B592BC0766C2F3C
:1030400070E0B5E075956795BA95E1F7462B572B7B
:10305000542F44272870220F220F8A2F887198E05E
:10306000899FD0011124922F9A2B3072232F30E0A8
:1030700035952795292B9F2F907396959695922B92
:103080002E2F2076229526952770292BCA01822B78
:10309000DF91CF911F910F91FF90EF9008950F93C3
:1030A0001F93CF93DF938C0160E00E942B17EC01FC
:1030B00061E0C8010E942B17AC01CE01A0E0B0E096
:1030C000DC019927882760E070E08C019D01042BCA
:1030D000152B262B372BC901B801DF91CF911F91FA
:1030E0000F910895FF920F931F93CF93DF93EC01FD
:1030F00060E00E942B178C0161E0CE010E942B172B
:10310000F82E62E0CE010E942B1720E030E0302F35
:1031100022271127002740E050E05F2D60E070E09B
:10312000042B152B262B372B492F50E060E070E045
:10313000CB01BA01602B712B822B932BDF91CF91A6
:103140001F910F91FF900895CF93DF93BC0186E705
:1031500093E00E944D14EC0167E173E086E793E091
:103160000E944D148C0F9D1FDF91CF9108954F92B7
:103170005F926F927F928F929F92AF92BF92CF9207
:10318000DF92EF92FF920F931F93CF93DF93CDB710
:10319000DEB766970FB6F894DEBF0FBECDBF9E8B2D
:1031A0008D8B2A013B010D831E832F83388780EE90
:1031B0009FEF9093310480933004AD89BE891296BD
:1031C0008D909D90AD90BC9015979A01AB01C50173
:1031D000B4010E94363E181674F0ED89FE89C6804F
:1031E000D780E084F184A7019601C301B2010E9457
:1031F000363E87FD03C08AE393E02EC0AD89BE89C9
:103200001E968D919D910D90BC91A02D89839A83DE
:10321000AB83BC832D813E814F815885BC01CD019C
:103220000E94363E1816B4F0AD89BE8952968D9133
:103230009D910D90BC91A02D89879A87AB87BC8703
:103240009C01AD016D817E818F8198850E94363E03
:10325000181644F487E593E00E94A41881E0809357
:10326000270404C1ED89FE8964A975A9072E000C05
:10327000880B990B0E94DA3B6D877E878F87988B2E
:10328000AD89BE89D8966D917C91D997072E000C97
:10329000880B990B0E94DA3B2D853E854F85588916
:1032A0000E94213D698B7A8B8B8B9C8BA5019401AD
:1032B000C701B6010E94213D9B01AC0169897A8951
:1032C0008B899C890E948E3D6B017C01A501940134
:1032D000C301B2010E94213D9B01AC01C701B601AF
:1032E0000E94393C2D853E854F8558890E94223D9C
:1032F0002B013C01ED89FE8962AD73AD072E000CF8
:10330000880B990B0E94DA3B6B017C01AD89BE8969
:10331000D6966D917C91D797072E000C880B990B50
:103320000E94DA3BA70196010E94213D4B015C01FE
:1033300029813A814B815C8169857A858B859C8561
:103340000E94213D9B01AC01C501B4010E948E3D4C
:103350004B015C0129813A814B815C816D817E81C9
:103360008F8198850E94213D9B01AC01C501B4016C
:103370000E94393CA70196010E94223D4B015C014D
:1033800080912704AD89BE89ED91FC918823F1F0ED
:1033900010922704808191819A838983C501B401A9
:1033A0000E94003E6B017C01C301B2010E94003EFD
:1033B000A981BA81ED91FC9111970084F185E02DEE
:1033C00020EE3FEFA601CD01199540C0808191818B
:1033D0009E878D87C501B4010E94003E69837A8370
:1033E0008B839C83C301B2010E94003E6D837E8368
:1033F0008F83988760912C0470912D0480912E0406
:1034000090912F040E94003E69877A878B879C8762
:10341000609128047091290480912A0490912B04D2
:103420000E94003EAD85BE85ED91FC91119704A0F0
:10343000F5A1E02D80EEE82EFF24FA9409811A818F
:103440002D813E8149855A85CD01199540922804E8
:103450005092290460922A0470922B0480922C04CA
:1034600090922D04A0922E04B0922F0466960FB66F
:10347000F894DEBF0FBECDBFDF91CF911F910F91AA
:10348000FF90EF90DF90CF90BF90AF909F908F9084
:103490007F906F905F904F900895CF93DF93BC0122
:1034A00086E793E00E943F14EC0167E173E086E752
:1034B00093E00E944D148C0F9D1FDF91CF910895D2
:1034C000CF93DF93EC01FB014481558160817181D1
:1034D0000E944A13811103C0CE010E947813CE01CD
:1034E000DF91CF9108950F931F93CF93DF93CDB7C3
:1034F000DEB761970FB6F894DEBF0FBECDBF8C016B
:10350000CB01F8011182108213821282158214827B
:103510004AE0BE016F5F7F4F0E945A39BE016F5F64
:103520007F4FC8010E94C41361960FB6F894DEBFA6
:103530000FBECDBFDF91CF911F910F9108959F9244
:10354000AF92BF92CF92DF92EF92FF920F931F93B1
:10355000CF93DF93EC016B0188859985892B11F05E
:1035600010E801C011E0F6019080892D8123AA2482
:10357000A3948111A12C2C813D814E815F8160E259
:1035800071EA87E090E00E94F73C022FB12CE22E16
:10359000F12C002319F0C7010E9415288A85877F26
:1035A000B9F58D858F3FB9F0992D912381E009F40C
:1035B00080E08A1581F0EF85F8898F89992331F0B1
:1035C0009081892B8083AA24A39405C09081809543
:1035D00089238083A12CE989FA899081898D892B9F
:1035E0008083002319F0C7010E9415288E858F3F24
:1035F00039F0EB89FC899081888D892309F0B12A03
:10360000E989FA899081898D8095892380832CC0EE
:10361000E989FA899081898D892B8083002319F0AB
:10362000C7010E9415288D858F3F69F0EF85F889C5
:103630008F89992D912319F09081892B03C0908156
:10364000809589238083E989FA899081898D809585
:10365000892380838E858F3F39F0EB89FC899081A7
:10366000888D892309F0B12A8E858F3F11F0F601EC
:10367000B08288859985892B79F4110F111189CF32
:10368000DF91CF911F910F91FF90EF90DF90CF903E
:10369000BF90AF909F9008951695F0CFFC012081C8
:1036A0002EBD0DB407FEFDCF2EB5FC01208308957D
:1036B0003F924F925F926F927F928F929F92AF92C2
:1036C000BF92CF92DF92EF92FF920F931F93CF930F
:1036D000DF93CDB7DEB72E970FB6F894DEBF0FBEDF
:1036E000CDBF5C018B01E0913204F0913304A081E5
:1036F000B18182E054968C93549755968C93A08117
:10370000B18180915E0490915F0451969C938E9359
:10371000509753961C921E925297C0906C04D09072
:103720006D0428E0C21AD108E684F784F7FE03C0CE
:103730008FEFE81AF80AF594E79480916A04909163
:103740006B04E80EF91EB501CE0101960E9410141B
:10375000E0913204F09133040190F081E02D2D814D
:103760003E814CE0429FC001439F900D112497FD84
:10377000019695958795E81AF90AF586E486D78625
:10378000C686CE0101960E94DB13E0913204F091CF
:103790003304B501808191810E943F14E09132048D
:1037A000F09133048685978597FD019695958795C9
:1037B000E0906804F0906904A4E0EA1AF108E81ABD
:1037C000F90AC0906604D0906704B801CE01019652
:1037D0000E941014E0913204F09133040190F081C2
:1037E000E02D2D813E814CE0429FC001439F900D12
:1037F000112497FD019695958795C81AD90AD58603
:10380000C486F786E686CE0101960E94DB13E0911E
:103810003204F0913304B801808191810E943F14F9
:10382000E0913204F09133040190F081E02D81E0C9
:10383000848B858BC0904004D0904104E09042047A
:10384000F090430416E08090440490904504A090CA
:103850004604B0904704A7019601C501B4010E9437
:10386000363E87FDADC060916C0470916D04072EEB
:10387000000C880B990B0E94DA3B2B013C018091D4
:10388000400490914104A0914204B09143048F837D
:103890009887A987BA876091680470916904072E98
:1038A000000C880B990B0E94DA3BA30192010E9445
:1038B000213D6B877C878D879E872F813885498541
:1038C0005A85C501B4010E94213D9B01AC016B8565
:1038D0007C858D859E850E948E3D4B015C012F81EC
:1038E000388549855A85C701B6010E94213D9B0153
:1038F000AC01C501B4010E94393CA30192010E94B0
:10390000223D20E030E040E850E40E94213D0E944A
:10391000003E2B013C01E0913204F0913304868596
:10392000978597FD019695958795A0906604B09030
:103930006704A81AB90A21E0B701A601CE010196D1
:103940000E94E013E0913204F09133040190F08181
:10395000E02D2D813E81129FC001139F900D1124F7
:1039600097FD019695958795A81AB90AB586A486FC
:1039700057864686CE0101960E94DB13E091320401
:10398000F091330421E0B701A601808191810E946A
:10399000621420E030E040EA50E460914804709105
:1039A000490480914A0490914B040E94393C9B0148
:1039B000AC01C701B6010E94223D6B017C0143CFDF
:1039C000C0903404D0903504E0903604F090370471
:1039D00026E0322E8090380490903904A0903A046A
:1039E000B0903B04A7019601C501B4010E94363E88
:1039F00087FDB0C06091660470916704072E000CCB
:103A0000880B990B0E94DA3B2B013C018091340416
:103A100090913504A0913604B09137048F83988734
:103A2000A987BA87E0913204F0913304068517859F
:103A300017FF02C00F5F1F4F1595079580916C040B
:103A400090916D04080F191F0450110960916A04C8
:103A500070916B04072E000C880B990B0E94DA3BC7
:103A6000A30192010E94213D6B877C878D879E87F1
:103A70002F81388549855A85C501B4010E94213DB1
:103A80009B01AC016B857C858D859E850E948E3D5A
:103A90004B015C012F81388549855A85C701B601E4
:103AA0000E94213D9B01AC01C501B4010E94393C3B
:103AB000A30192010E94223D0E94003E4B015C0145
:103AC00020E0B701A601CE0101960E94E013E0912B
:103AD0003204F09133040190F081E02D8D819E81BC
:103AE000389EB001399E700D112477FF02C06F5FC0
:103AF0007F4F75956795719561957109860E971E33
:103B00009586848617870687CE0101960E94DB136F
:103B1000E0913204F091330420E0B701A6018081E6
:103B200091810E94621420E030E040EC50E460910A
:103B30003C0470913D0480913E0490913F040E94AA
:103B4000393C9B01AC01C701B6010E94223D6B01CB
:103B50007C0140CF2E960FB6F894DEBF0FBECDBFCE
:103B6000DF91CF911F910F91FF90EF90DF90CF9059
:103B7000BF90AF909F908F907F906F905F904F908D
:103B80003F900895FC016370668B84819581268146
:103B90003781613039F0633029F09187808733872E
:103BA00022870895318720879387828708956F92AF
:103BB0007F928F929F92AF92BF92CF92DF92EF92BD
:103BC000FF920F931F93CF93DF93EC014B015A01A8
:103BD00069013801E881F9810284F385E02D1995A6
:103BE000E881F9810288F389E02D87019601A5011A
:103BF000B401CE011995A501460D571D415051093B
:103C0000E881F9810288F389E02D9601B401CE01A3
:103C10001995E881F9810088F189E02D9301A501CA
:103C2000B401CE011995C80CD91CB60161507109B7
:103C3000E881F9810088F189E02D9301A501CE0189
:103C40001995E881F9810688F789E02DCE01DF9189
:103C5000CF911F910F91FF90EF90DF90CF90BF9089
:103C6000AF909F908F907F906F9019948F929F92BA
:103C7000AF92BF92CF92DF92EF92FF920F931F937A
:103C8000CF93DF934C016B015A01E901DC01ED9107
:103C9000FC916217730781F40417150724F48B2D28
:103CA0005801042F182F0A191B0998012F5F3F4F45
:103CB000048CF58DE02D12C04017510709F5261729
:103CC000370724F48D2D6901C62FD82F9E012C199A
:103CD0003D092F5F3F4F068CF78DE02D8701A50131
:103CE000B601C4011995DF91CF911F910F91FF90FB
:103CF000EF90DF90CF90BF90AF909F908F900895FE
:103D00000284F385E02D1995D401ED91FC9104888E
:103D1000F589E02D9E01A501B601C4011995D401D4
:103D2000ED91FC910688F789E02DC401DF91CF91D8
:103D30001F910F91FF90EF90DF90CF90BF90AF90C9
:103D40009F908F901994EF92FF920F931F93DC0135
:103D50001A960D911C911B9718962D913C911997CD
:103D6000ED91FC9100A0F1A1E02D7B0140E050E03D
:103D700060E070E019951F910F91FF90EF9008950A
:103D80004F925F926F927F928F929F92AF92BF926B
:103D9000CF92DF92EF92FF920F931F93CF93DF9317
:103DA0006C012B015A0139014801DC01ED91FC91B4
:103DB0000284F385E02D1995E201640C751CD6018F
:103DC000ED91FC91C615D7055CF40088F189E02DD2
:103DD00087019401A501BE01C60119952196EFCF77
:103DE0000688F789E02DC601DF91CF911F910F91D1
:103DF000FF90EF90DF90CF90BF90AF909F908F900B
:103E00007F906F905F904F9019948F929F92AF9296
:103E1000BF92CF92DF92EF92FF920F931F93CF93B7
:103E2000DF93EC015B014A016901E881F9810284B9
:103E3000F385E02D199595012C0D3D1D215031097B
:103E4000E881F9810488F589E02D78018401A401D5
:103E5000B501CE011995E881F9810688F789E02D31
:103E6000CE01DF91CF911F910F91FF90EF90DF90E6
:103E7000CF90BF90AF909F908F9019948F929F9208
:103E8000AF92BF92CF92DF92EF92FF920F931F9368
:103E9000CF93DF93EC015B014A0169017801E8816E
:103EA000F9810284F385E02D1995C80CD91C86018F
:103EB00001501109E881F9810488F589E02D950107
:103EC000A401B501CE011995E881F9810688F78929
:103ED000E02DCE01DF91CF911F910F91FF90EF90D8
:103EE000DF90CF90BF90AF909F908F9019940895DE
:103EF000EF92FF920F931F93DC01ED91FC9100A0D4
:103F0000F1A1E02D19951F910F91FF90EF90089569
:103F10000F931F93DC01ED91FC91068CF78DE02D42
:103F200019951F910F9108950F931F93DC01ED9147
:103F3000FC91048CF58DE02D19951F910F9108953A
:103F4000DC01ED91FC910084F185E02D19942F9214
:103F50003F924F925F926F927F928F929F92AF9219
:103F6000BF92CF92DF92EF92FF920F931F93CF9366
:103F7000DF9300D000D0CDB7DEB72C017E836D83F8
:103F80006A015901C801FC82EB824801841A950A32
:103F900097FE03C091948194910835012D813E8153
:103FA000621A730A77FE03C07194619471086814F1
:103FB00079045CF43A2D2B2D5C01832F922F3D81E7
:103FC0002E81DE82CD82C32ED22EAD81BE81AA1675
:103FD000BB065CF43C2D2D2D6C01832F922F3D816F
:103FE0002E81BE82AD82A32EB22E85012D813E810F
:103FF000021B130B1C012C183D0837FE03C0319423
:1040000021943108780117FF03C03FEFE31AF30A48
:10401000F594E794C816D9062CF08FEF9FEF9A839A
:10402000898304C0A1E0B0E0BA83A9832D813E81D9
:10403000A216B30624F1D201ED91FC910484F5851A
:10404000E02D2B813C816814790424F44D815E813C
:10405000B60103C0A6016D817E81C2011995E218E7
:10406000F308F7FE06C029813A81C20ED31EE00E86
:10407000F11E8D819E8101969E838D83D7CF2696DA
:104080000FB6F894DEBF0FBECDBFDF91CF911F9169
:104090000F91FF90EF90DF90CF90BF90AF909F90E7
:1040A0008F907F906F905F904F903F902F900895EA
:1040B00085ED8093BC008091BC0084FDFCCF109204
:1040C0005D05089540913905262F30E0240F311DFC
:1040D00021323105DCF420915D052430C9F4FC0166
:1040E00080E090E0861758F4309139052191DC0189
:1040F000A75EBA4FA30FB11D2C930196F3CF809109
:104100003905680F6093390580E0089581E00895CE
:1041100082E0089508950895E091880580918705CB
:10412000E81730F4F0E0E750FB4F808190E008950D
:104130008FEF9FEF089590918805809187059817DC
:1041400050F4E92FF0E0E750FB4F208130E09F5F13
:104150009093880502C02FEF3FEFC9010895809129
:10416000870590E020918805821B91090895CF92E0
:10417000DF92EF92FF920F931F93CF93DF937C0117
:10418000CB018A0120918C05222389F0EB016B0180
:10419000C40ED51ECC15DD0569F06991D701ED91EE
:1041A000FC910190F081E02DC7011995F3CF642FA8
:1041B0000E946220C801DF91CF911F910F91FF9063
:1041C000EF90DF90CF900895CF93DF931F92CDB7FC
:1041D000DEB7698320918C052223D1F020918905D7
:1041E000203240F021E030E0FC013383228380E084
:1041F00090E015C080918A05E82FF0E0E752FB4F70
:10420000998190838F5F80938A058093890505C08B
:1042100061E0CE0101960E94622081E090E00F9063
:10422000DF91CF910895089580E090E00895EF9296
:10423000FF920F931F93DC011A960D911C911B970F
:1042400018962D913C911997ED91FC9100A0F1A148
:10425000E02D7B0140E050E060E070E019951F9197
:104260000F91FF90EF900895EF92FF920F931F939D
:10427000DC01ED91FC9100A0F1A1E02D780101E0BD
:1042800010E019951F910F91FF90EF9008958F9274
:104290009F92AF92CF92EF92FF920F931F93CF9383
:1042A000DF93EC01262F898D9A8D009709F042C08B
:1042B0006A3059F41D861C862D898E859F8538E0CD
:1042C000239F800D911D112443C06D3009F4AAC0B5
:1042D0008F898823C9F03C898C859D8546E0349F71
:1042E000800D911D1124488559854817590764F49C
:1042F0001D861C863D898E859F8548E0349F800DF4
:10430000911D11249F878E87EA88FB880889198967
:104310004E855F856C857D85AD88CC88CE010E94F9
:10432000F6232C898C859D8536E0239F800D911D79
:1043300011243EC06A3079F41D861C862D89FC014B
:104340003896E4918E859F852E9F800D911D1124B6
:104350009F878E8767C06D3009F464C0FC01349676
:104360003491631708F45EC03296E491E61708F4BE
:1043700059C0462F431B342FFC01329685909490F0
:1043800047E0349F800C911C1124F4013296349143
:104390003196E491332311F0E1110DC0F40134960C
:1043A000E4912C898C859D85E29F800D911D1124BF
:1043B0009D878C8737C0F401359644915F895523DA
:1043C00019F15C89E32FF0E0E40FF11D47FDFA9548
:1043D0005E9FB0015F9F700D11244C855D85460F77
:1043E000571F688579856417750774F41D861C86C8
:1043F0003D89FC013896E4918E859F853E9F800D16
:10440000911D11249F878E87EA88FB880889198966
:104410004E855F856C857D85AD88CC88CE010E94F8
:10442000F623BCCF81E090E0DF91CF911F910F91F7
:10443000FF90EF90CF90AF909F908F9008951F9234
:104440000F920FB60F9211240BB60F922F933F933A
:104450004F935F936F937F938F939F93AF93BF938C
:10446000EF93FF938091B900887F803609F49CC058
:1044700068F5883209F45BC090F4803109F454C0C7
:1044800038F4882309F4F6C0883009F44DC0F6C02A
:10449000883109F44CC0803209F45DC0EFC080342B
:1044A00009F468C048F4803309F455C0883309F032
:1044B000E5C080935C05D8C0803509F44FC08835CD
:1044C00009F45DC0883409F0D9C0D6C0883909F430
:1044D000C7C0A8F4883709F467C038F4883609F4EF
:1044E00063C0803709F460C0C9C0883809F4B8C017
:1044F000803909F45FC0803809F0C0C05BC0803BE0
:1045000009F486C038F4803A09F466C0883A09F4A0
:104510007FC0B4C0803C09F4A7C0883C09F4A4C0A3
:10452000883B09F48AC0AAC08091820510C090918E
:10453000810580918005981770F5E091810581E0F3
:104540008E0F80938105F0E0E05AFA4F80818093CE
:10455000BB0085EC86C080935C058EC0E091810530
:1045600081E08E0F809381058091BB00F0E0E05ADE
:10457000FA4F808390918105809180056EC0E09113
:10458000810581E08E0F809381058091BB00F0E072
:10459000E05AFA4F808380915F0581116DC081E000
:1045A00080935E0584EA61C083E080935D0510928C
:1045B0005B05CFCF80915B05803208F051C0E09160
:1045C0005B0581E08E0F80935B058091BB00F0E07E
:1045D000E55CFA4F8083BDCF85EC8093BC001092E0
:1045E0005D0580915B05803230F4E0915B05F0E081
:1045F000E55CFA4F108260915B0570E0E091850503
:10460000F09186058BE395E0199510925B0536C015
:1046100084E080935D0510923A0510923905E0918F
:104620008305F0918405199580913905811105C0A4
:1046300081E08093390510921905E0913A0581E0F7
:104640008E0F80933A05F0E0E75EFA4F8081809309
:10465000BB0090913A0580913905981708F479CFFD
:1046600085E88093BC000AC085EC8093BC00109262
:104670005D0504C010925C050E945820FF91EF91E7
:10468000BF91AF919F918F917F916F915F914F916A
:104690003F912F910F900BBE0F900FBE0F901F9068
:1046A000189510925D0581E080935F0510925E057C
:1046B00061E084E10E94642661E085E10E94642655
:1046C000E9EBF0E080818E7F808380818D7F808325
:1046D00088E48093B80085E48093BC00089530910D
:1046E0008905313208F04AC080915D058111FCCF07
:1046F00090918B0522E020935D0560935F052FEF7D
:1047000020935C051092810530938005E9EDF4E07B
:10471000A0E6B5E020E0321721F041914D932F5FE4
:10472000FACF1092820520918205990F922B9093D7
:10473000820590915E05913061F410925E05909132
:1047400082059093BB009091BC0093FDF8CF95EC4F
:1047500001C095EE9093BC0090915D059230E1F31D
:1047600090915C059F3F79F080915C05803241F02B
:1047700080915C05803331F084E005C081E003C0A6
:1047800082E001C083E010928A05109289051092A0
:104790008C050895EF92FF920F931F93FC017B010C
:1047A00080819181008511852681378144815581E1
:1047B00062817381DC01ED91FC9100A0F1A1E02DFB
:1047C00019951F910F91FF90EF900895CF93DF936C
:1047D000EC0186960E94DB13CE0180960E94DB13CB
:1047E000CE014A96DF91CF910C94DB132F923F922A
:1047F0004F925F926F927F928F929F92AF92BF92F1
:10480000CF92DF92EF92FF920F931F93CF93DF939C
:10481000CDB7DEB76B970FB6F894DEBF0FBECDBF36
:104820009B8F8A8F1B014A01D22E19870887370177
:10483000A982DC0159962D913C915A972115310599
:1048400009F0FFC018968D919C9119976817790708
:104850000CF0E7C11A968D919C911B974817590748
:104860000CF0DFC1EC2DF0E0FB83EA839B0146E016
:10487000C49E200D311D11243D872C87121613066E
:104880000CF0CFC16A2D70E07B876A8783E0660FEA
:10489000771F8A95E1F77F876E87CB01880D991D79
:1048A000181619060CF0BDC158968C91811104C0E0
:1048B0008FEA8D1508F4D394AA8DBB8DED91FC91F0
:1048C00011970284F385E02DCD011995B5E0DB9EAB
:1048D000C0011124EC2DF0E0F98BE88B91012B5FE6
:1048E0003F4F3B8B2A8B3D822C822101AC01421928
:1048F00053095D8B4C8B7981672F70E07F8B6E8BBA
:10490000C4010896998F888FEC89FD89E40DF51D07
:10491000E953F54FD49054019F828E82D0FE16C089
:10492000AA8DBB8DED91FC91B1E0CB1209C029811C
:10493000213031F40484F585E02D2885398519C0AE
:104940000684F785E02DE884F9841DC048855985E3
:104950004615570519F1AA8DBB8DED91FC91B1E07B
:10496000CB120DC02981213051F40484F585E02D4E
:104970009301A501B2018A8D9B8D19950FC0068404
:10498000F785E02D73010A851B852A813B814E81C5
:104990005F816C817D818A8D9B8D1995D6943FEFC7
:1049A000A31AB30A4E815F816E897F89460F571F14
:1049B0005F834E83888D998DA816B90609F0AECF16
:1049C0009FEF491A590AAC81BD81E889F989AE0F78
:1049D000BF1FBD83AC832A893B894216530609F069
:1049E00093CF488559854615570509F4F8C0AA8D17
:1049F000BB8DED91FC91B1E0CB1211C0298121302A
:104A000071F4B1016B5F7F4F0088F189E02D830164
:104A100028E030E0A4018A8D9B8D1995E0C06C855B
:104A20007D854A815B81641B750B0684F785E02DCB
:104A300073010E851F859A01A4018A8D9B8D19959E
:104A4000CEC0F9013496E491DE1AF90132968591CF
:104A50009491B7E0DB9E800D911D1124F901259101
:104A600034913B8B2A8BFC01259134915901FC0137
:104A700032965490319634913C87329674903196A8
:104A8000149141E04C1518F05981523068F0672DAF
:104A9000072C000C770B7D836C83812F012E000C7B
:104AA000990B9B838A8304C01B821A821D821C82FD
:104AB000AA8DBB8DED91FC9111970284F385E02DB9
:104AC000CD011995412CD12C612CF981EF2FF0E00B
:104AD000FF83EE832C2D30E03B872A87A401410F12
:104AE000511D17FD5A955F8B4E8BB101670D711DDE
:104AF00077FC7A95798F688F7C85671608F06FC090
:104B0000262D30E04A815B81420F531FAE81BF8169
:104B1000A49FC001A59F900DB49F900D1124F40196
:104B2000E80FF91FF98BE88B842D712C4E895F8972
:104B3000420F531F5D8B4C8B751408F04DC051E034
:104B4000580F5E87877041F4C5010196EA89FB8999
:104B5000EA0DFB1DD4905C01D7FE3AC061E0C6129D
:104B600016C07981713099F4AA8DBB8DED91FC91BD
:104B700011970484F585E02D288539854C895D8958
:104B8000688D798D670D711DCD01199521C08C81BE
:104B90009D81870D911DEA85FB858E9FB0018F9FBA
:104BA000700D9E9F700D1124620D731DAA8DBB8D1B
:104BB000ED91FC9111970684F785E02DE884F98446
:104BC0000E811F812A853B8548895989CD01199518
:104BD000DD0C73948E85B0CF450C63948DCFAA8D78
:104BE000BB8DED91FC9111970688F789E02DCD01E1
:104BF0006B960FB6F894DEBF0FBECDBFDF91CF919D
:104C00001F910F91FF90EF90DF90CF90BF90AF90EA
:104C10009F908F907F906F905F904F903F902F90DC
:104C200019946B960FB6F894DEBF0FBECDBFDF911F
:104C3000CF911F910F91FF90EF90DF90CF90BF9099
:104C4000AF909F908F907F906F905F904F903F902C
:104C50002F900895CF93DF93EC018B8181111EC0BB
:104C6000109288051092870510928A051092890586
:104C70000E9451238AE890E29093840580938305F3
:104C80008BE890E2909386058093850581E08B8385
:104C9000CE010E942A26982F882391F0888191E0E6
:104CA00090938C0580938B0510928A05109289054C
:104CB00061E089819A810E946F2391E0811190E0E7
:104CC000892FDF91CF910895362F90E0FC01EF57A7
:104CD000F54F4491FC01E55CF54F2491FC01EB504C
:104CE000F64F9491992309F46CC0442309F455C0FC
:104CF00050E0FA013197E231F10508F04EC0882703
:104D0000EE58FF4F8F4F0C94193D809180008F77A4
:104D100007C0809180008F7D03C080918000877FD5
:104D2000809380003AC084B58F7702C084B58F7DB0
:104D300084BD33C08091B0008F7703C08091B000F4
:104D40008F7D8093B00029C0809190008F7707C03D
:104D5000809190008F7D03C080919000877F809329
:104D600090001BC08091A0008F7707C08091A000A9
:104D70008F7D03C08091A000877F8093A0000DC02D
:104D8000809120018F7707C0809120018F7D03C023
:104D900080912001877F80932001E92FF0E0EE0FC2
:104DA000FF1FE552F64FA591B4919FB7F8943111CA
:104DB00004C08C912095282302C0EC912E2B2C93BB
:104DC0009FBF08956F927F928F929F92AF92BF92F2
:104DD000CF92DF92EF92FF920F931F93CF93DF93C7
:104DE00000D0CDB7DEB78C01DC011F964D935D93EB
:104DF0006D937C9352971A968C911A97882319F089
:104E00001C964C9302C0F8014387452F562F672FFD
:104E10007727882321F0D8011B964C9302C0F80114
:104E200044876801FBE0CF0ED11CD80116968C9107
:104E3000169717969C91179789839A83ED90FC900B
:104E40001197E114F10409F447C019960C9110E090
:104E500098012E5F3F4FF701848195818217930758
:104E6000C8F1808191E090938C0580938B0510921E
:104E70008A05109289050115110581F4F7018181D8
:104E80009281DC01ED91FC910280F381E02D42E002
:104E900050E0B60119950297E9F412C0F70181813B
:104EA0009281DC01ED91FC910280F381E02DA8015B
:104EB000BE016F5F7F4F19950817190759F4DECFB0
:104EC00061E0F701818192810E946F2391E0882344
:104ED00009F473C090E071C0D8011296ED90FC9077
:104EE0001397E114F104B1F314962D913C911597A9
:104EF0002115310511F48F770AC02230310511F4E4
:104F0000806805C02130310519F48F77806489836A
:104F1000F8016184712CD7018D919C911197892B97
:104F200041F01296ED91FC911397908181819CBD87
:104F30008DBD60E0F70183850E946426CE01019655
:104F40004C015C01C5018819990986159705A8F4DB
:104F5000D5018D915D018B83F70180819181892B32
:104F600029F0CE0103960E944E1BECCFBE016D5F6F
:104F70007F4FC7010E949F1AE5CF035F1F4FD601E5
:104F80008D916D018B83F70180819181892B29F0AF
:104F9000CE0103960E944E1B06C0BE016D5F7F4F7F
:104FA000C7010E949F1A0C151D0549F761E0D70142
:104FB0001B968C910E94642691E0892F0F900F9090
:104FC0000F90DF91CF911F910F91FF90EF90DF90A5
:104FD000CF90BF90AF909F908F907F906F900895EB
:104FE000863308F0865390917B00282F2870977F96
:104FF000922B90937B0020910C0290E4299F9001CA
:1050000011248770822B80937C0080917A008064C9
:1050100080937A0080917A0086FDFCCF80917800A1
:105020002091790090E0922B08958230910538F01C
:10503000880F991F880F991F05970197F1F7089519
:105040008F929F92AF92BF92CF92DF92EF92FF9298
:105050006B017C010E945A284B015C01C114D104F0
:10506000E104F104F1F00E945A28DC01CB01881917
:105070009909AA09BB09883E9340A105B10570F3BF
:1050800021E0C21AD108E108F10888EE880E83E019
:10509000981EA11CB11CC114D104E104F10419F73C
:1050A000DDCFFF90EF90DF90CF90BF90AF909F90BB
:1050B0008F9008953FB7F894809192059091930551
:1050C000A0919405B091950526B5A89B05C02F3FEA
:1050D00019F00196A11DB11D3FBFBA2FA92F982F1E
:1050E0008827820F911DA11DB11DBC01CD0142E099
:1050F000660F771F881F991F4A95D1F708951F9251
:105100000F920FB60F9211242F933F938F939F937B
:10511000AF93BF9380918D0590918E05A0918F05DF
:10512000B09190053091910523E0230F2D3720F4A5
:105130000196A11DB11D05C026E8230F0296A11DF1
:10514000B11D2093910580938D0590938E05A093BA
:105150008F05B09390058091920590919305A09151
:105160009405B09195050196A11DB11D80939205FE
:1051700090939305A0939405B0939505BF91AF913B
:105180009F918F913F912F910F900FBE0F901F9085
:105190001895CF93DF93CDB7DEB7C356D1090FB6BD
:1051A000F894DEBF0FBECDBF789484B5826084BD15
:1051B00084B5816084BD85B5826085BD85B581601B
:1051C00085BD80916E00816080936E001092810099
:1051D0008091810082608093810080918100816054
:1051E0008093810080918000816080938000809115
:1051F000B10084608093B1008091B00081608093A1
:10520000B000809191008260809391008091910024
:1052100081608093910080919000816080939000E4
:105220008091A10082608093A1008091A1008160A3
:105230008093A1008091A00081608093A000809164
:1052400021018260809321018091210181608093FE
:1052500021018091200181608093200180917A005A
:10526000846080937A0080917A00826080937A00D3
:1052700080917A00816080937A0080917A008068C2
:1052800080937A001092C100E0918603F091870329
:1052900082E08083E0918203F09183031082E091A9
:1052A0008403F09185038FEC808310928E03E0914C
:1052B0008A03F0918B0386E08083E0918803F0916C
:1052C0008903808180618083E0918803F091890364
:1052D000808188608083E0918803F09189038081D8
:1052E00080688083E0918803F091890380818F7DBD
:1052F00080830E94FC1660E080E090E00E942B1703
:10530000883024E5920709F4E0C0803234E5930741
:1053100009F4DEC08938994809F4DDC060E087E609
:1053200090E00E942B178734974409F4D7C08FEE82
:1053300090E00E9472186732734909F4D2C081EA82
:1053400090E00E944F186130B1E67B0709F4CCC0B1
:105350006F3FEFEF7E0719F406E215E1F6C0611525
:105360007F4F19F400E215E1F0C08FEB90E00E944E
:105370007218673523E8720709F4B9C0613834E957
:10538000730709F4B7C0613185E1780709F4B5C046
:10539000603295E1790731F36632A5E17A07E1F2EF
:1053A0006138B5E17B0709F4ABC06115744109F4BC
:1053B000AAC084ED90E00E944F186031734509F453
:1053C000A5C087ED90E00E944F186133704809F442
:1053D000A0C08EEF90E00E944F18BB27A92F982FF6
:1053E000872F8335904209F497C084E090E00E94B3
:1053F0004F189B01811124C0211560E8360701F583
:105400008091130290911402A091150289839A83CE
:10541000AB83AE014F5F5F4F63E089EB90E00E948A
:105420002E0860E080ED90E00E942B17893929F06A
:105430008039C9F400E910E988C009E910E085C0A5
:10544000263275E1370709F487CF203F89E838070E
:1054500009F465C0223595E8390709F463C02131A4
:105460003C4A09F462C083ED90E00E944F18BB27CC
:10547000A92F982F872F8336914909F459C083EDBE
:1054800090E00E944F186932F2E37F0709F453C09D
:105490003DE6370F323008F451C0783909F44EC078
:1054A000773709F44BC0763109F448C0633D710584
:1054B00009F446C0633D734D09F445C060E080E0E7
:1054C00090E00E942B178C0140C008E014E53DC01D
:1054D00000E214E53AC009E812E137C007E413E836
:1054E00034C007E213E931C003E619E12EC007E535
:1054F00013E82BC001E814E928C001E115E125C03B
:1055000001E815E122C004E118E61FC000E113E53F
:105510001CC001E310E819C003E510E216C005E362
:1055200017E713C009E817E710C001E11CEA0DC036
:1055300003E611E90AC009E212E307C08B0105C0C6
:1055400003ED10E002C003ED13ED0E94FC16109273
:10555000A00410929F041093A4040093A3040133A9
:1055600030E8130709F4B0C108F0AFC0033570E2AA
:10557000170709F419C208F047C0013195E119076E
:1055800009F437C1B0F40939110509F4C1C138F47F
:105590000130110509F07CC280E091E1D3C10435EE
:1055A000B1E01B0709F41AC10530154109F4C8C15F
:1055B0006FC20632F5E11F0709F433C180F40032EF
:1055C000154109F065C283E194E09093A2048093B1
:1055D000A104E6E0EE2EF12C04EE14E05FC20138E7
:1055E00065E1160709F401C20230164109F050C204
:1055F00083E094E09093A2048093A10416E0E12E4E
:10560000F12C0DEF13E04AC2093088E6180709F4BF
:10561000A2C100F50533A5E41A0709F40EC180F410
:105620000932124309F034C283E096E09093A20459
:105630008093A10460E4E62EF12C08E914E02EC268
:105640000031F3E51F0709F403C10830144509F4DC
:1056500077C11EC2093837E7130709F429C1A0F43E
:10566000043178E6170709F40BC10338174709F02E
:105670000FC282E091E19093A2048093A10468E8B4
:1056800070E081E098E0EEC1033997E7190709F46B
:10569000ECC10639174709F0FBC183E094E0909311
:1056A000A2048093A10480EE91E090938B048093F8
:1056B0008A0480E491E090938904809388047DE0DB
:1056C000E72EF12C08E013E0E9C10833B3E91B072A
:1056D00009F479C1B8F50532F3E91F0709F43EC1B1
:1056E000B8F4003930E9130709F4FAC038F4073583
:1056F000134809F0CDC183E094E1F4C0023083E99E
:10570000180709F454C10032134909F419C1C0C182
:105710000932A3E91A0709F459C150F40732E3E941
:105720001E0709F429C10832134909F417C1B0C191
:10573000013323E9120709F414C10533134909F4AD
:1057400010C1A6C1093864E9160788F5073874E95D
:10575000170708F065C1013483E9180709F439C156
:1057600028F40034134909F434C192C10138B4E972
:105770001B0709F43DC10638144909F089C183E0CB
:1057800094E09093A2048093A10480EE91E0909322
:105790008B0480938A0480E491E090938904809341
:1057A0008804EBE3EE2EF12C05E113E077C1053020
:1057B000F5EB1F0709F44CC138F401311C4A09F01C
:1057C00067C183E194E1F5C0093065EB160709F480
:1057D0004CC10530154C09F43BC15AC182E090E13F
:1057E0009093A2048093A1046CE970E085E299E0B3
:1057F00039C183E090E09093A2048093A10480EEED
:1058000091E090938B0480938A0480E491E09093DC
:10581000890480938804F3E0EF2EF12C0AEE14E063
:105820003DC183E194E09093A2048093A1047CE0C5
:10583000E72EF12C08ED14E031C180E090E1909367
:10584000A2048093A1046CE970E089E898E00AC1A1
:1058500083E19EE09093A2048093A10480EE91E006
:1058600090938B0480938A0480E491E09093890460
:105870008093880452E0E52EF12C06E914E00EC175
:1058800083E094E09093A2048093A10480EE91E0E1
:1058900090938B0480938A0480E491E09093890430
:1058A0008093880443E0E42EF12C03E914E0F6C071
:1058B00083E194E09093A2048093A10431E4E32E69
:1058C000F12C02E514E0EAC083E194E19093A20494
:1058D0008093A10422E1E22EF12C00E414E0DEC06A
:1058E00083E194E19093A2048093A10480EE91E07F
:1058F00090938B0480938A0480E491E090938904D0
:105900008093880492E0E92EF12C0EE314E0C6C0E7
:1059100083E194E19093A2048093A10480EE91E04E
:1059200090938B0480938A0480E491E0909389049F
:10593000809388048DE1E82EF12C01E214E0AEC0E2
:1059400084E090E19093A2048093A10468ED70E05C
:1059500089E297E087C082E091E105C080E091E1B3
:1059600002C080E090E19093A2048093A1046CECCB
:1059700070E08DE596E076C083E094E09093A20419
:105980008093A10480E991E090938B0480938A0432
:1059900080EF90E090938904809388040EE1E02EDC
:1059A000F12C03E014E07AC087E194E102C083E0C7
:1059B00094E09093A2048093A104B3E0EB2EF12C29
:1059C0000AEF13E06BC083E194E0F3CF83E096E14C
:1059D000F0CF83E194E09093A2048093A104A5E624
:1059E000EA2EF12C05E913E059C083E194E002C0EE
:1059F00087E094E09093A2048093A10480EE91E06C
:105A000090938B0480938A0480E491E090938904BE
:105A100080938804F5E4EF2EF12C00E513E03EC0FE
:105A200083E194E09093A2048093A10480EE91E03E
:105A300090938B0480938A0480E491E0909389048E
:105A4000809388046BE2E62EF12C0DED12E026C067
:105A500088E090E19093A2048093A10460EB70E051
:105A60008DEA95E00E94EC1517C080E090E19093DC
:105A7000A2048093A10460EC70E08DEE94E00E949B
:105A8000EC1580E991E090938B0480938A0404C024
:105A9000109289041092880400E010E02091A20482
:105AA000822F82958F7090E0817099279093A60441
:105AB0008093A5040115110581F069E070E084ED83
:105AC00092E00E941016B701C8010E94101666E00D
:105AD00070E08EEC92E00E94101660E084E894E0A2
